{
    "contractName": "SocialMusic",
    "abi": [
        {
            "inputs": [
                {
                    "internalType": "string",
                    "name": "_songName",
                    "type": "string"
                }
            ],
            "name": "addSong",
            "outputs": [],
            "stateMutability": "nonpayable",
            "type": "function"
        },
        {
            "inputs": [
                {
                    "internalType": "address",
                    "name": "_user",
                    "type": "address"
                }
            ],
            "name": "follow",
            "outputs": [],
            "stateMutability": "nonpayable",
            "type": "function"
        },
        {
            "inputs": [
                {
                    "internalType": "bytes32",
                    "name": "_name",
                    "type": "bytes32"
                },
                {
                    "internalType": "uint256",
                    "name": "_age",
                    "type": "uint256"
                },
                {
                    "internalType": "string",
                    "name": "_state",
                    "type": "string"
                }
            ],
            "name": "setup",
            "outputs": [],
            "stateMutability": "nonpayable",
            "type": "function"
        }
    ],
    "bytecode": "608060405234801561001057600080fd5b50610711806100206000396000f3fe608060405234801561001057600080fd5b50600436106100415760003560e01c80634dbf27cc146100465780637f590f5e1461005b578063996fa3a51461006e575b600080fd5b6100596100543660046105d3565b610081565b005b61005961006936600461064f565b610130565b61005961007c366004610601565b6101c7565b6001600160a01b0381166100f05760405162461bcd60e51b815260206004820152602b60248201527f416464726573732073686f756c64206e6f7420626520696e697469616c20616460448201526a64726573732076616c756560a81b60648201526084015b60405180910390fd5b336000908152602081815260408220600401805460018101825590835291200180546001600160a01b0319166001600160a01b0392909216919091179055565b6000815111801561014357506064815111155b61018f5760405162461bcd60e51b815260206004820152601e60248201527f536f6e676e616d6520697320656d707479206f7220746f6f206c6f6e672e000060448201526064016100e7565b33600090815260208181526040822060030180546001810182559083529181902083516101c39391909101918401906103ab565b5050565b6040805160a0810182528481526020808201859052818301849052336000908152808252838120600301805485518185028101850190965280865291946060850193909290869084015b828210156102bd5783829060005260206000200180546102309061068a565b80601f016020809104026020016040519081016040528092919081815260200182805461025c9061068a565b80156102a95780601f1061027e576101008083540402835291602001916102a9565b820191906000526020600020905b81548152906001019060200180831161028c57829003601f168201915b505050505081526020019060010190610211565b505050908252503360009081526020818152604091829020600401805483518184028101840190945280845293820193909183018282801561032857602002820191906000526020600020905b81546001600160a01b0316815260019091019060200180831161030a575b505050919092525050336000908152602081815260409182902083518155818401516001820155918301518051939450849361036a92600285019201906103ab565b506060820151805161038691600384019160209091019061042f565b50608082015180516103a2916004840191602090910190610488565b50505050505050565b8280546103b79061068a565b90600052602060002090601f0160209004810192826103d9576000855561041f565b82601f106103f257805160ff191683800117855561041f565b8280016001018555821561041f579182015b8281111561041f578251825591602001919060010190610404565b5061042b9291506104dd565b5090565b82805482825590600052602060002090810192821561047c579160200282015b8281111561047c578251805161046c9184916020909101906103ab565b509160200191906001019061044f565b5061042b9291506104f2565b82805482825590600052602060002090810192821561041f579160200282015b8281111561041f57825182546001600160a01b0319166001600160a01b039091161782556020909201916001909101906104a8565b5b8082111561042b57600081556001016104de565b8082111561042b576000610506828261050f565b506001016104f2565b50805461051b9061068a565b6000825580601f1061052b575050565b601f01602090049060005260206000209081019061054991906104dd565b50565b600082601f83011261055c578081fd5b813567ffffffffffffffff80821115610577576105776106c5565b604051601f8301601f19908116603f0116810190828211818310171561059f5761059f6106c5565b816040528381528660208588010111156105b7578485fd5b8360208701602083013792830160200193909352509392505050565b6000602082840312156105e4578081fd5b81356001600160a01b03811681146105fa578182fd5b9392505050565b600080600060608486031215610615578182fd5b8335925060208401359150604084013567ffffffffffffffff811115610639578182fd5b6106458682870161054c565b9150509250925092565b600060208284031215610660578081fd5b813567ffffffffffffffff811115610676578182fd5b6106828482850161054c565b949350505050565b600181811c9082168061069e57607f821691505b602082108114156106bf57634e487b7160e01b600052602260045260246000fd5b50919050565b634e487b7160e01b600052604160045260246000fdfea264697066735822122093017205a52df6633958702aa485253616c424799484299f4bdbdd8b066337f964736f6c63430008040033",
    "sourcePath": "c:/Users/brian/Desktop/crypto/mastering-eth-first/contracts/SocialMusic.sol",
    "compiler": {
        "name": "solc",
        "version": "0.8.4+commit.c7e474f2"
    },
    "functionHashes": {
        "addSong(string)": "7f590f5e",
        "follow(address)": "4dbf27cc",
        "setup(bytes32,uint256,string)": "996fa3a5"
    },
    "gasEstimates": {
        "creation": {
            "codeDepositCost": "361800",
            "executionCost": "399",
            "totalCost": "362199"
        },
        "external": {
            "addSong(string)": "infinite",
            "follow(address)": "42092",
            "setup(bytes32,uint256,string)": "infinite"
        }
    }
}