{
  "contractName": "SocialMusic",
  "abi": [
    {
      "anonymous": false,
      "inputs": [
        {
          "indexed": false,
          "internalType": "address",
          "name": "_addr",
          "type": "address"
        }
      ],
      "name": "EmitUser",
      "type": "event"
    },
    {
      "inputs": [
        {
          "internalType": "address",
          "name": "",
          "type": "address"
        }
      ],
      "name": "userExists",
      "outputs": [
        {
          "internalType": "bool",
          "name": "",
          "type": "bool"
        }
      ],
      "stateMutability": "view",
      "type": "function",
      "constant": true
    },
    {
      "inputs": [
        {
          "internalType": "address",
          "name": "",
          "type": "address"
        }
      ],
      "name": "users",
      "outputs": [
        {
          "internalType": "string",
          "name": "name",
          "type": "string"
        },
        {
          "internalType": "string",
          "name": "state",
          "type": "string"
        },
        {
          "internalType": "uint256",
          "name": "age",
          "type": "uint256"
        }
      ],
      "stateMutability": "view",
      "type": "function",
      "constant": true
    },
    {
      "inputs": [
        {
          "internalType": "string",
          "name": "_songName",
          "type": "string"
        }
      ],
      "name": "addSong",
      "outputs": [],
      "stateMutability": "nonpayable",
      "type": "function"
    },
    {
      "inputs": [
        {
          "internalType": "string",
          "name": "_name",
          "type": "string"
        },
        {
          "internalType": "uint256",
          "name": "_age",
          "type": "uint256"
        },
        {
          "internalType": "string",
          "name": "_state",
          "type": "string"
        }
      ],
      "name": "setup",
      "outputs": [],
      "stateMutability": "nonpayable",
      "type": "function"
    },
    {
      "inputs": [
        {
          "internalType": "address",
          "name": "_user",
          "type": "address"
        }
      ],
      "name": "follow",
      "outputs": [],
      "stateMutability": "nonpayable",
      "type": "function"
    },
    {
      "inputs": [
        {
          "internalType": "address",
          "name": "_address",
          "type": "address"
        }
      ],
      "name": "hasAccount",
      "outputs": [
        {
          "internalType": "bool",
          "name": "",
          "type": "bool"
        }
      ],
      "stateMutability": "view",
      "type": "function",
      "constant": true
    },
    {
      "inputs": [],
      "name": "getUsersList",
      "outputs": [
        {
          "internalType": "address[]",
          "name": "",
          "type": "address[]"
        }
      ],
      "stateMutability": "view",
      "type": "function",
      "constant": true
    },
    {
      "inputs": [
        {
          "internalType": "address",
          "name": "_address",
          "type": "address"
        }
      ],
      "name": "getYourSongs",
      "outputs": [
        {
          "internalType": "string[]",
          "name": "",
          "type": "string[]"
        }
      ],
      "stateMutability": "view",
      "type": "function",
      "constant": true
    },
    {
      "inputs": [
        {
          "internalType": "address",
          "name": "_address",
          "type": "address"
        }
      ],
      "name": "getUsersYouFollow",
      "outputs": [
        {
          "internalType": "address[]",
          "name": "",
          "type": "address[]"
        }
      ],
      "stateMutability": "view",
      "type": "function",
      "constant": true
    }
  ],
  "bytecode": "0x608060405234801561001057600080fd5b50611602806100206000396000f3fe608060405234801561001057600080fd5b50600436106100935760003560e01c8063a87430ba11610066578063a87430ba14610130578063bd631e7b14610162578063c74e13f31461017e578063c8e40fbf1461019c578063f099b4e6146101cc57610093565b806309f54d3d146100985780630e666e49146100c85780634dbf27cc146100f85780637f590f5e14610114575b600080fd5b6100b260048036038101906100ad9190610e8e565b6101fc565b6040516100bf91906111a8565b60405180910390f35b6100e260048036038101906100dd9190610e8e565b6102cc565b6040516100ef91906111ec565b60405180910390f35b610112600480360381019061010d9190610e8e565b6102ec565b005b61012e60048036038101906101299190610eb7565b610402565b005b61014a60048036038101906101459190610e8e565b6104d3565b60405161015993929190611207565b60405180910390f35b61017c60048036038101906101779190610ef8565b61060d565b005b610186610a0c565b60405161019391906111a8565b60405180910390f35b6101b660048036038101906101b19190610e8e565b610a9a565b6040516101c391906111ec565b60405180910390f35b6101e660048036038101906101e19190610e8e565b610af0565b6040516101f391906111ca565b60405180910390f35b6060600160008373ffffffffffffffffffffffffffffffffffffffff1673ffffffffffffffffffffffffffffffffffffffff1681526020019081526020016000206004018054806020026020016040519081016040528092919081815260200182805480156102c057602002820191906000526020600020905b8160009054906101000a900473ffffffffffffffffffffffffffffffffffffffff1673ffffffffffffffffffffffffffffffffffffffff1681526020019060010190808311610276575b50505050509050919050565b60026020528060005260406000206000915054906101000a900460ff1681565b600073ffffffffffffffffffffffffffffffffffffffff168173ffffffffffffffffffffffffffffffffffffffff16141561035c576040517f08c379a00000000000000000000000000000000000000000000000000000000081526004016103539061124c565b60405180910390fd5b600160003373ffffffffffffffffffffffffffffffffffffffff1673ffffffffffffffffffffffffffffffffffffffff168152602001908152602001600020600401819080600181540180825580915050600190039060005260206000200160009091909190916101000a81548173ffffffffffffffffffffffffffffffffffffffff021916908373ffffffffffffffffffffffffffffffffffffffff16021790555050565b6000815111801561041557506064815111155b610454576040517f08c379a000000000000000000000000000000000000000000000000000000000815260040161044b9061126c565b60405180910390fd5b600160003373ffffffffffffffffffffffffffffffffffffffff1673ffffffffffffffffffffffffffffffffffffffff168152602001908152602001600020600301819080600181540180825580915050600190039060005260206000200160009091909190915090805190602001906104cf929190610c0b565b5050565b60016020528060005260406000206000915090508060000180546104f69061142b565b80601f01602080910402602001604051908101604052809291908181526020018280546105229061142b565b801561056f5780601f106105445761010080835404028352916020019161056f565b820191906000526020600020905b81548152906001019060200180831161055257829003601f168201915b5050505050908060010180546105849061142b565b80601f01602080910402602001604051908101604052809291908181526020018280546105b09061142b565b80156105fd5780601f106105d2576101008083540402835291602001916105fd565b820191906000526020600020905b8154815290600101906020018083116105e057829003601f168201915b5050505050908060020154905083565b60008390506000815111610656576040517f08c379a000000000000000000000000000000000000000000000000000000000815260040161064d9061128c565b60405180910390fd5b6040518060a00160405280858152602001838152602001848152602001600160003373ffffffffffffffffffffffffffffffffffffffff1673ffffffffffffffffffffffffffffffffffffffff168152602001908152602001600020600301805480602002602001604051908101604052809291908181526020016000905b828210156107815783829060005260206000200180546106f49061142b565b80601f01602080910402602001604051908101604052809291908181526020018280546107209061142b565b801561076d5780601f106107425761010080835404028352916020019161076d565b820191906000526020600020905b81548152906001019060200180831161075057829003601f168201915b5050505050815260200190600101906106d5565b505050508152602001600160003373ffffffffffffffffffffffffffffffffffffffff1673ffffffffffffffffffffffffffffffffffffffff16815260200190815260200160002060040180548060200260200160405190810160405280929190818152602001828054801561084c57602002820191906000526020600020905b8160009054906101000a900473ffffffffffffffffffffffffffffffffffffffff1673ffffffffffffffffffffffffffffffffffffffff1681526020019060010190808311610802575b5050505050815250600160003373ffffffffffffffffffffffffffffffffffffffff1673ffffffffffffffffffffffffffffffffffffffff16815260200190815260200160002060008201518160000190805190602001906108af929190610c0b565b5060208201518160010190805190602001906108cc929190610c0b565b506040820151816002015560608201518160030190805190602001906108f3929190610c91565b506080820151816004019080519060200190610910929190610cf1565b509050506001600260003373ffffffffffffffffffffffffffffffffffffffff1673ffffffffffffffffffffffffffffffffffffffff16815260200190815260200160002060006101000a81548160ff0219169083151502179055506000339080600181540180825580915050600190039060005260206000200160009091909190916101000a81548173ffffffffffffffffffffffffffffffffffffffff021916908373ffffffffffffffffffffffffffffffffffffffff1602179055507f785bd88844c8f6c377c9d190b0e052a5b5ffc9bfa5354f4c63b6fb12e623f94a336040516109fe919061118d565b60405180910390a150505050565b60606000805480602002602001604051908101604052809291908181526020018280548015610a9057602002820191906000526020600020905b8160009054906101000a900473ffffffffffffffffffffffffffffffffffffffff1673ffffffffffffffffffffffffffffffffffffffff1681526020019060010190808311610a46575b5050505050905090565b6000600260008373ffffffffffffffffffffffffffffffffffffffff1673ffffffffffffffffffffffffffffffffffffffff16815260200190815260200160002060009054906101000a900460ff169050919050565b6060600160008373ffffffffffffffffffffffffffffffffffffffff1673ffffffffffffffffffffffffffffffffffffffff168152602001908152602001600020600301805480602002602001604051908101604052809291908181526020016000905b82821015610c00578382906000526020600020018054610b739061142b565b80601f0160208091040260200160405190810160405280929190818152602001828054610b9f9061142b565b8015610bec5780601f10610bc157610100808354040283529160200191610bec565b820191906000526020600020905b815481529060010190602001808311610bcf57829003601f168201915b505050505081526020019060010190610b54565b505050509050919050565b828054610c179061142b565b90600052602060002090601f016020900481019282610c395760008555610c80565b82601f10610c5257805160ff1916838001178555610c80565b82800160010185558215610c80579182015b82811115610c7f578251825591602001919060010190610c64565b5b509050610c8d9190610d7b565b5090565b828054828255906000526020600020908101928215610ce0579160200282015b82811115610cdf578251829080519060200190610ccf929190610c0b565b5091602001919060010190610cb1565b5b509050610ced9190610d98565b5090565b828054828255906000526020600020908101928215610d6a579160200282015b82811115610d695782518260006101000a81548173ffffffffffffffffffffffffffffffffffffffff021916908373ffffffffffffffffffffffffffffffffffffffff16021790555091602001919060010190610d11565b5b509050610d779190610d7b565b5090565b5b80821115610d94576000816000905550600101610d7c565b5090565b5b80821115610db85760008181610daf9190610dbc565b50600101610d99565b5090565b508054610dc89061142b565b6000825580601f10610dda5750610df9565b601f016020900490600052602060002090810190610df89190610d7b565b5b50565b6000610e0f610e0a846112d1565b6112ac565b905082815260208101848484011115610e2757600080fd5b610e328482856113e9565b509392505050565b600081359050610e498161159e565b92915050565b600082601f830112610e6057600080fd5b8135610e70848260208601610dfc565b91505092915050565b600081359050610e88816115b5565b92915050565b600060208284031215610ea057600080fd5b6000610eae84828501610e3a565b91505092915050565b600060208284031215610ec957600080fd5b600082013567ffffffffffffffff811115610ee357600080fd5b610eef84828501610e4f565b91505092915050565b600080600060608486031215610f0d57600080fd5b600084013567ffffffffffffffff811115610f2757600080fd5b610f3386828701610e4f565b9350506020610f4486828701610e79565b925050604084013567ffffffffffffffff811115610f6157600080fd5b610f6d86828701610e4f565b9150509250925092565b6000610f838383610fa3565b60208301905092915050565b6000610f9b83836110a3565b905092915050565b610fac816113a1565b82525050565b610fbb816113a1565b82525050565b6000610fcc82611322565b610fd6818561135d565b9350610fe183611302565b8060005b83811015611012578151610ff98882610f77565b975061100483611343565b925050600181019050610fe5565b5085935050505092915050565b600061102a8261132d565b611034818561136e565b93508360208202850161104685611312565b8060005b8581101561108257848403895281516110638582610f8f565b945061106e83611350565b925060208a0199505060018101905061104a565b50829750879550505050505092915050565b61109d816113b3565b82525050565b60006110ae82611338565b6110b8818561137f565b93506110c88185602086016113f8565b6110d1816114ec565b840191505092915050565b60006110e782611338565b6110f18185611390565b93506111018185602086016113f8565b61110a816114ec565b840191505092915050565b6000611122602b83611390565b915061112d826114fd565b604082019050919050565b6000611145601e83611390565b91506111508261154c565b602082019050919050565b6000611168600e83611390565b915061117382611575565b602082019050919050565b611187816113df565b82525050565b60006020820190506111a26000830184610fb2565b92915050565b600060208201905081810360008301526111c28184610fc1565b905092915050565b600060208201905081810360008301526111e4818461101f565b905092915050565b60006020820190506112016000830184611094565b92915050565b6000606082019050818103600083015261122181866110dc565b9050818103602083015261123581856110dc565b9050611244604083018461117e565b949350505050565b6000602082019050818103600083015261126581611115565b9050919050565b6000602082019050818103600083015261128581611138565b9050919050565b600060208201905081810360008301526112a58161115b565b9050919050565b60006112b66112c7565b90506112c2828261145d565b919050565b6000604051905090565b600067ffffffffffffffff8211156112ec576112eb6114bd565b5b6112f5826114ec565b9050602081019050919050565b6000819050602082019050919050565b6000819050602082019050919050565b600081519050919050565b600081519050919050565b600081519050919050565b6000602082019050919050565b6000602082019050919050565b600082825260208201905092915050565b600082825260208201905092915050565b600082825260208201905092915050565b600082825260208201905092915050565b60006113ac826113bf565b9050919050565b60008115159050919050565b600073ffffffffffffffffffffffffffffffffffffffff82169050919050565b6000819050919050565b82818337600083830152505050565b60005b838110156114165780820151818401526020810190506113fb565b83811115611425576000848401525b50505050565b6000600282049050600182168061144357607f821691505b602082108114156114575761145661148e565b5b50919050565b611466826114ec565b810181811067ffffffffffffffff82111715611485576114846114bd565b5b80604052505050565b7f4e487b7100000000000000000000000000000000000000000000000000000000600052602260045260246000fd5b7f4e487b7100000000000000000000000000000000000000000000000000000000600052604160045260246000fd5b6000601f19601f8301169050919050565b7f416464726573732073686f756c64206e6f7420626520696e697469616c20616460008201527f64726573732076616c7565000000000000000000000000000000000000000000602082015250565b7f536f6e676e616d6520697320656d707479206f7220746f6f206c6f6e672e0000600082015250565b7f4e616d6520697320656d7074792e000000000000000000000000000000000000600082015250565b6115a7816113a1565b81146115b257600080fd5b50565b6115be816113df565b81146115c957600080fd5b5056fea264697066735822122016a5b143bdb4dee8430dce78c484aab066f94d06b573cbd186d3a73da46e6dcd64736f6c63430008040033",
  "immutableReferences": {},
  "source": "// SPDX-License-Identifier: MIT\r\npragma solidity 0.8.4;\r\n\r\ncontract SocialMusic {\r\n    \r\n    address[] usersList;\r\n    \r\n    struct User {\r\n        string name;\r\n        string state;\r\n        uint age;\r\n        string[] recommendations;\r\n        address[] following;\r\n    }\r\n\r\n    mapping(address => User) public users;\r\n    mapping(address => bool) public userExists;\r\n\r\n    event EmitUser(address _addr);\r\n\r\n    function addSong(string memory _songName) public {\r\n        require(bytes(_songName).length > 0 && bytes(_songName).length <= 100, \"Songname is empty or too long.\");\r\n        users[msg.sender].recommendations.push(_songName);\r\n    }\r\n\r\n    function setup(string memory _name, uint _age, string memory _state) public {\r\n        bytes memory nameBytes = bytes(_name);\r\n        require(nameBytes.length > 0, \"Name is empty.\");\r\n        users[msg.sender] = User(_name, _state, _age, users[msg.sender].recommendations, users[msg.sender].following);\r\n        userExists[msg.sender] = true;\r\n        usersList.push(msg.sender);\r\n        emit EmitUser(msg.sender);\r\n    }\r\n    function follow(address _user) public {\r\n        require(_user != address(0), \"Address should not be initial address value\");\r\n        users[msg.sender].following.push(_user);\r\n    }\r\n\r\n    function hasAccount(address _address) public view returns (bool) {\r\n        return userExists[_address];\r\n    }\r\n\r\n    function getUsersList() public view returns (address[] memory) {\r\n        return usersList;\r\n    }\r\n\r\n    function getYourSongs(address _address) public view returns (string[] memory) {\r\n        return users[_address].recommendations;\r\n    }\r\n\r\n    function getUsersYouFollow(address _address) public view returns (address[] memory) {\r\n        return users[_address].following;\r\n    }\r\n}\r\n",
  "sourcePath": "C:/Users/brian/desktop/crypto/mastering-eth-first/contracts/SocialMusic.sol",
  "compiler": {
    "name": "solc",
    "version": "0.8.4+commit.c7e474f2.Emscripten.clang"
  },
  "schemaVersion": "3.4.0",
  "updatedAt": "2021-04-30T13:41:16.628Z",
  "networkType": "ethereum",
  "devdoc": {
    "kind": "dev",
    "methods": {},
    "version": 1
  },
  "userdoc": {
    "kind": "user",
    "methods": {},
    "version": 1
  }
}